:020000040800F2
:10000000202A0020995D0008095B00080B5B0008AE
:100010000D5B00080F5B0008115B0008000000008A
:10002000000000000000000000000000135B00085A
:10003000155B000800000000175B0008195B000852
:10004000B15D0008B55D0008B95D0008BD5D000840
:10005000C15D0008C55D0008C95D0008CD5D0008F0
:10006000D15D0008D55D0008D95D0008DD5D0008A0
:10007000E15D0008E55D0008E95D0008ED5D000850
:10008000F15D0008F55D0008F95D0008FD5D000800
:10009000015E0008055E0008095E00080D5E0008AC
:1000A000115E0008155E0008195E00081D5E00085C
:1000B000215E00081D5B0008255E0008295E00081F
:1000C0002D5E0008315E0008355E0008395E0008CC
:1000D0003D5E0008415E0008435B0008455E000885
:1000E000495E00084D5E0008515E0008555E00083C
:1000F000595E00085D5E0008615E0008655E0008EC
:10010000695E00086D5E0008715E0008755E00089B
:10011000795E00087D5E0008815E0008855E00084B
:10012000895E0008675B00088D5E0008915E00082C
:10013000955E0008995E00089D5E0008A15E0008BB
:10014000A55E0008A95E0008AD5E0008B15E00086B
:10015000B55E0008B95E0008BD5E0008C15E00081B
:10016000C55E0008C95E0008CD5E0008D15E0008CB
:10017000D55E0008D95E0008DD5E000800000000C2
:10018000E15E0008E55E0008E95E0008ED5E00083B
:10019000F15E0008F55E0008F95E0008FD5E0008EB
:1001A000015F0008055F0008095F000810B5DFF86F
:1001B00068450021204601F088FA0122A26410BDA2
:1001C00010B5DFF8584504EB800420706270A17010
:1001D000E37010BD2DE9F84F04462DED028B2D2C58
:1001E000C8BF2D240025DFF838A5DFF830B51BF88F
:1001F00025000AF8250001260BEB8507B85D01F004
:1002000027FE8046C4F15A0008EE100AB8EEC88AEC
:10021000894618EE100A01F029FEDFF80825DFF8FC
:10022000083501F047FE0022DFF8003501F018FF25
:1002300002F03AF801F01AFE41EC100B02F06BF8F4
:1002400053EC102B4046494601F00AFF02F06AF8D1
:100250000AEB85018855761C042ECFDB6D1CA02D82
:10026000C5DBBDEC028BBDE8F18F70B50024002129
:10027000DFF8BC544326DFF8A80400EB8100827845
:100280004378C078120242EA03420243172022FA5E
:1002900000F3DB074EBF25F81460162325F8143051
:1002A000641C401EF3D5491CA029E4DBA02105EB0A
:1002B000440002F053F8DFF860645034A3B22A46D9
:1002C0000021304601F010F9B06C0028FCD000216C
:1002D000B16470BDF8B52DED0E8B00259FED808BC0
:1002E0009FED81CADFED81CA9FED819B9FED82ABBF
:1002F000DFF84044268806EBC506B6B2B70806EB21
:100300005770C108A6EBC1000DEE100A02F02AF8E2
:1003100041EC1E0B304601F09BFD41EC1B0B51ECF8
:100320001E0B00F0D8F801F0FDFF18B102286BD0C9
:1003300031D3ABE051EC1E0B01F0B6FF01F096FD9E
:1003400000F0C9F800F0B3F801F0AEFF0BEE100AB0
:10035000F8EECDBA1BEE900A01F088FD00F0BBF874
:1003600001F0A2FF00EE100A60EE0C0A2BEE0C1A50
:1003700071EE201A00EE2C1ABDEEC10A10EE102A02
:100380004BEE2C0AFDEEE11ABDEEE00A11EE903ABA
:1003900010EE101A72E053EC1E2B51EC180B01F00A
:1003A000F3FF01F081FF01F061FD00F094F800F02F
:1003B0007EF801F079FF0DEE100A53EC1B2B51EC87
:1003C000180B01F0E1FF01F0ADFF00F076F800F04E
:1003D00082F801F069FF2DEE0C1AF0EE411A00EEE2
:1003E000100A40EE2C1AFDEEE11A60EE0C0A11EE36
:1003F000903AF0EE601A4DEE2C1AFDEEE11A11EE75
:10040000902A71EE200A35E053EC1E2B51EC190BAB
:1004100001F0BAFF01F048FF01F028FD00F05BF8A1
:1004200000F045F801F040FF0DEE100A53EC1B2BD5
:1004300051EC190B01F0A8FF01F074FF00F03DF83A
:1004400000F049F801F030FF00EE100A20EE0C1A1F
:100450006DEE0C0AF0EE411A4DEE2C1A30EE811AB8
:10046000FDEEE11ABDEEC11A11EE903A11EE102A1E
:1004700040EE2C0AFDEEE00A10EE901A2846FFF737
:100480009FFE1420FFF7A6FEFFF7EFFE6D1CA02DC8
:10049000FFF630AF2088082803DB002020800320EF
:1004A00002E0401C20800120BDEC0E8BF2BD024614
:1004B0000B4651EC1A0B02F025B8811000EB51727B
:1004C000D210A0EBC20000EE100AB8EEC00A10EE87
:1004D000100A01F0CBBC4FF05532974B01F0C0BD74
:1004E00055555555555505C00000000000007F4387
:1004F00055555555555515C0000000000000F03FFA
:1005000070B50023002406E0055D0E5DB54214BF02
:1005100000235B1C641C9442F6DBDBB2934201D1E6
:10052000012070BD002070BD10B5844C84490522A7
:1005300000F041FE30B10320A064C8230B220FF26B
:100540000421CDE000F034FE10B10120A064CAE027
:10055000032269A100F02FFE50B100F035F961656A
:10056000642020654FF4FA7305220FF2E411B7E01E
:1005700004220FF2E41100F01EFE48B16421A165CF
:1005800000F028F900F010F95FF0060274A1A7E06E
:100590005FF0040274A100F00EFE48B100F01AF9F9
:1005A000A0654FF4FA7364206065072270A197E09C
:1005B000032252A100F0FFFD60B10020E0640021A1
:1005C00064202065A164A165282000F0EDF80722D1
:1005D00069A185E003224AA100F0EDFD40B100F0E1
:1005E000F3F86420206500F0DFF8072264A177E0CB
:1005F0005FF0040265A100F0DEFD48B16421A16551
:10060000616500F0E7F84FF4FA73062261A167E034
:1006100003223CA100F0CFFD50B100F0CFF86420E0
:100620002065A06508220020C4F854005BA157E0B3
:1006300004220FF6583100F0BEFD30B1322100F037
:10064000B7F815220FF678414AE004220FF634314C
:1006500000F0B1FD30B1022100F0AAF809220FF636
:1006600078413DE0032228A100F0A5FD68B10020FB
:10067000E064A0642D21FF202065A165332000F0F7
:1006800093F806220FF65C412AE003221FA100F036
:1006900092FD48B100F092F896202065A065606553
:1006A00007220FF648411BE0032219A100F083FD49
:1006B00050B1502020650F21A1652D2000F074F865
:1006C00005220FF630410BE012A104F15C0001F0AD
:1006D0008AFF01F097FF4FF4FA7382B204F15C01D4
:1006E000201D01F0D6FF142104F15C0002F03EFB56
:1006F00000206070207010BD726564006F72610030
:1007000079656C007075720070696E0077686900B9
:10071000636A75000A000000C8250020A81F002099
:1007200028220020F1D4C853FB21094000806640F4
:100730000801002018260020555505400000002023
:10074000B01200084C4544206973204F4E2E0A0019
:100750005245442E0A000000626C756500000000DE
:10076000424C55452E0A0000677265650000000086
:10077000475245454E2E0A004F52414E472E0A0021
:1007800059454C4C4F572E200A000000617175618D
:1007900000000000415155412E0A000050555250B2
:1007A0004C452E0A0000000060654FF4FA73704754
:1007B000A1640020E0644FF4FA7370470020E06405
:1007C000A0644FF4FA7370470020E0640021A16434
:1007D000A16570470020E064A064206570470000B8
:1007E0002DE9F84F9CB002F0C5FA00F0F0FC00F0E3
:1007F000D6FC0020DFF87C5ADFF87C7ADFF87C6AD0
:10080000009044F28104296841F00401296000212C
:10081000286800F0040000F0C6FC42F080022A6064
:10082000286800F0800000F0BEFC42F001022A605F
:10083000286800F0010000F0B6FC42F002022A60D5
:10084000286800F002000090009800914FF4804169
:100850002A6842F010022A600022286800F0100086
:1008600000900098384602F097FB0022214630465F
:1008700002F092FB4FF480410991012200210B917B
:100880000C910A9209A9384602F08EFA0120002143
:1008900009900A910B9109A9DFF8E40902F084FAA2
:1008A00001200A9000220B920C92099409A930466B
:1008B00002F07AFADFF8CC49DFF8CC0960604FF437
:1008C0001651A1600020E060206160610C21E061B0
:1008D0002062A161201D01F09FFE08B100F0E6FC3E
:1008E000002000900022296841F480012960002145
:1008F000286800F48000009000250098392002F05C
:1009000083FB392002F09DFB10A800210022002368
:1009100080E82E00CDE9001209A81C2102F026FA79
:10092000DFF86859DFF8680968624FF43471A9622A
:100930000020E86240F2CF716863E863296305F143
:10094000240000F02BFD08B100F0B0FC4FF48057FC
:10095000109710A905F1240001F02DF808B100F05E
:10096000A5FC05F1240000F07AFD08B100F09EFC22
:1009700000210091019105F12400694602F08CFBF1
:1009800008B100F093FC6021002209910A920B92B9
:100990000D9209A9042205F1240000F0AAFF08B174
:1009A00000F084FC05F1240002F067FC18A8002187
:1009B00000220023002680E84E00CDE9001211A895
:1009C0001C2102F0D3F9202100F0EAFBDFF8C46813
:1009D000DFF8C408306000215520F0607160B1601C
:1009E00031617161B161304600F0D8FC08B100F0AE
:1009F0005DFC189718A9304600F0DDFF08B100F043
:100A000055FC304600F02BFD08B100F04FFC0021F2
:100A1000009101913046694602F03EFB08B100F0BA
:100A200045FC602000211190129100221491169132
:100A300013921592179211A9304600F05AFF08B18F
:100A400000F034FC00204FF4005109900A900B9004
:100A50000C900D900E91109009A9304602F062FBA7
:100A600008B100F023FC304602F007FC00F097FBD1
:100A7000002100910020DFF824186960A8607F2120
:100A8000E960FC20286100216961A961E961281DF4
:100A900002F080FC08B100F009FC1B218DF8251044
:100AA0001E228DF826200D2000218DF824000C91A7
:100AB00000220D9209A9281D02F0B4FC08B100F033
:100AC000F5FB052111228DF800108DF80120192168
:100AD00016228DF802108DF8032069460022281D89
:100AE00002F01BFD08B100F0E1FB00F06BFB9DF88C
:100AF0001200DFF8AC67E86605F1240000F05BFC4B
:100B00006068C16841F02001C16017E004220FF263
:100B1000746100F050FB30B1FFF7DCFBA16C1420D6
:100B20000229E064F8D00027A36D626D216DF8B250
:100B3000FFF746FB7F1CF8B2A028F5DB00F042FB74
:100B4000002203A9281D02F02EFD05220FF2AC7130
:100B500000F031FB40B39DF81200EA6E824223D2CE
:100B6000E86629789DF811709DF810C09DF80D2059
:100B70009DF80E30029091F0010E9DF80F1085F84F
:100B800000E001F5FA610197CDF800C0304602D0CF
:100B900002F0ACFD08E002F0A9FD4FF4FA73002268
:100BA000A8A1201D01F075FD04220FF2587100F07C
:100BB00002FB08B100200EE004220FF2507100F099
:100BC000FAFA08B1052006E004220FF2487100F09D
:100BD000F2FA20B10A2000F0F2FAFFF746FB0422F5
:100BE0000FF2387100F0E7FA08B10F201EE004227E
:100BF0000FF2307100F0DFFA08B1142016E0042281
:100C00000FF2287100F0D7FA08B119200EE0042283
:100C10000FF2207100F0CFFA08B11E2006E0042286
:100C20000FF2187100F0C7FA20B1232000F0C7FAC4
:100C3000FFF71BFB04220FF20C7100F0BCFA08B1A5
:100C4000282006E004220FF2047100F0B4FA20B16B
:100C50002D2000F0B4FAFFF708FBD4F84CB0276D54
:100C6000D4F848A00222A3A100F0A5FA18B10027E9
:100C7000BB46BA46BBE102229FA100F09CFA08B134
:100C80000F2760E002229DA100F095FA08B11E270F
:100C900059E00222A2A100F08EFA08B12D2752E0FD
:100CA0000222A0A100F087FA08B13C274BE0022203
:100CB0009DA100F080FA08B14B2744E00222A3A1D5
:100CC00000F079FA08B15A273DE00222A0A100F015
:100CD00072FA08B1692736E002229EA100F06BFA91
:100CE00008B178272FE002229BA100F064FA08B136
:100CF000872728E0022299A100F05DFA08B1962723
:100D000021E0022296A100F056FA08B1A5271AE0C8
:100D100002229CA100F04FFA08B1B42713E002228E
:100D200099A100F048FA08B1C3270CE0022297A16C
:100D300000F041FA08B1D22705E0022294A100F0A8
:100D40003AFA18B1E12700F025FA50E1D4F85480BE
:100D5000022290A100F02FFA20B14FF00008C34604
:100D6000C24642E102228CA100F025FA10B14FF0F8
:100D70000F0870E0022289A100F01DFA10B14FF0B7
:100D80001E0868E0022286A100F015FA10B14FF0AB
:100D90002D0860E0022283A100F00DFA10B14FF09F
:100DA0003C0858E0022280A100F005FA10B14FF093
:100DB0004B0850E002227DA100F0FDF910B14FF088
:100DC0005A0848E002227AA100F0F5F910B14FF07C
:100DD000690840E0022277A100F0EDF910B14FF070
:100DE000780838E0022274A100F0E5F910B14FF064
:100DF000870830E0022271A100F0DDF910B14FF058
:100E0000960828E002226EA100F0D5F910B14FF04B
:100E1000A50820E002226BA100F0CDF910B14FF03F
:100E2000B40818E0022268A100F0C5F910B14FF033
:100E3000C30810E0022265A100F0BDF920B14FF017
:100E4000D20808E000000000022261A100F0B3F91E
:100E500020B14FF0E10800F09DF9C6E0D4F85890B9
:100E60000222BAA100F0A7F920B14FF00009CB4649
:100E7000CA46B8E00222B6A100F09DF910B14FF0C9
:100E80000F09AEE00222B3A100F095F910B14FF0C6
:100E90001E09A6E00222B0A100F08DF910B14FF0BA
:100EA0002D099EE00222ADA100F085F910B14FF0AE
:100EB0003C0996E00222AAA100F07DF910B14FF0A2
:100EC0004B098EE00222A7A100F075F910B14FF096
:100ED0005A0986E00222A4A100F06DF910B14FF08A
:100EE00069097EE00222A1A100F065F940B14FF04E
:100EF000780976E05241000052420000524300005F
:100F000002229BA100F057F910B14FF0870968E069
:100F1000022298A100F04FF940B14FF0960960E02D
:100F2000524400005245000052460000022292A1A5
:100F300000F041F910B14FF0A50952E002228FA153
:100F400000F039F970B14FF0B4094AE0524700009F
:100F50005248000052490000524A0000524B000023
:100F6000524C0000022286A100F025F910B14FF08A
:100F7000C30936E00222BDA100F01DF950B34FF0C5
:100F8000D2092EE0524D0000524E0000524F000098
:100F90005250000047410000474200004743000014
:100FA000474400004745000047460000474700000F
:100FB0004748000047490000474A0000474B0000EF
:100FC000474C0000474D0000474E0000474F0000CF
:100FD000475000000222A6A100F0EDF818B14FF032
:100FE000E10900F0D7F8C4F85890C4F85480C4F868
:100FF0004CB02765C4F848A005220FF2583100F024
:10100000DAF858B100206421E0642165A0656065CC
:101010001920FFF7DFF8FFF728F984E506220FF221
:101020003C3100F0C8F838B10020E06400216420B1
:101030002165A0656165EBE707220FF2283100F01A
:10104000BAF820B100206421E0642065F1E70522B0
:101050000FF2183100F0AFF828B1642121650020AB
:101060002821E064E5E705220FF2083100F0A3F83B
:1010700018B100203221E064DAE706220FF2FC21E9
:1010800000F099F820B10020E06420656420BDE7FD
:1010900005220FF2F02100F08EF830B164212165B5
:1010A000A16500200021E064C4E705220FF2DC21E5
:1010B00000F081F830B10020FF21E06421652D208F
:1010C0003321B6E705220FF2CC2100F074F828B1E5
:1010D00000209621E0642165A165ABE75FF0050281
:1010E00073A100F068F840B1E06C2D282CDA401CA8
:1010F00000F065F8FFF7B9F8F6E700F059F840B1ED
:10110000E06C002820DD401E00F059F8FFF7ADF834
:10111000F6E704221DA100F04EF800283FF4F6ACDB
:1011200000273846FFF756F8FFF79FF87F1C222F5D
:10113000F7DB23273846FFF74DF8FFF796F87F1EB9
:10114000F8D5A06C3228EBD0EDE400BF424100009E
:101150004242000042430000424400004245000079
:101160004246000042470000424800004249000059
:10117000424A0000424B0000424C0000424D000039
:10118000424E00007261696E00000000636F6D6581
:10119000000000004FF0010B4FF0000A70471421CF
:1011A00009A801F0E3BD0090009800912A687047FB
:1011B0005FF0060240A104F15C00FFF7A1B9E06412
:1011C000FFF708B8002204A9281D02F089B980B5EC
:1011D00092B0302106A801F0C9FD142101A801F048
:1011E000C5FD0020009001232E48016841F0805188
:1011F00001600021006800F08050009000982A48AB
:1012000000910121026861F38F3202600A220068B6
:1012100000F44040009006A80099069210210A911F
:10122000002202210C910D92082148220E910F926A
:101230000221042209930B931091119202F06AFA91
:1012400008B172B6FEE7022102910F204FF48051DF
:1012500001900022049105910392022101A802F05D
:10126000E7FB08B172B6FEE713B000BD424F0000C5
:1012700042500000303802400008024000040240A2
:10128000000002400000002000440040A82400208C
:1012900000040040C8250020000001400028004054
:1012A000A85C0008403802400070004072B6FEE7BB
:1012B0006C65646F6E0000006C65646F66660000AC
:1012C0004C4544204272696768746E65737320549C
:1012D0004553542E0A0000005241494E424F572EAA
:1012E0000A00000050494E4B2E0A0000574849544E
:1012F000452E0A00434A552E0A00000074696D6F9E
:101300006E00000064616E410000000064616E4286
:101310000000000064616E430000000064616E44E0
:101320000000000064616E450000000064616E46CC
:101330000000000064616E470000000064616E48B8
:101340000000000064616E490000000064616E4AA4
:10135000000000007265646F6E000000626C7565CD
:101360006F6E0000677265656E6F6E006F72616F01
:101370006E00000079656C6F6E0000006171756130
:101380006F6E00007075726F6E00000070696E6F96
:101390006E0000007768696F6E00000038B50400C9
:1013A00001D1012032BD00F0F1F918B900F061FB64
:1013B00001F018FF3AE090F83D10012901D001201A
:1013C0007047022180F83D100168CA6842F00102AE
:1013D000CA600168DFF84022914218BFB1F1804F26
:1013E00017D0DFF8742291421CBFDFF870329942A7
:1013F0000FD0DFF86C2291421CBFDFF868329942AF
:1014000007D0DFF8642291421CBFDFF860329942B6
:1014100005D1896801F00701062905D001680A682D
:10142000084642F001020260002070470220687006
:10143000211D206800F09DFB0120A8720121A970E8
:10144000E87029716871A971E87129726872697010
:10145000002032BD28680022214600F0CEBC38B5FD
:10146000040001D1012032BD00F090F918B900F05C
:1014700000FB02F083FBD9E7DFF8E42190427047DC
:10148000DFF8D421904270472868036A13427047FE
:101490002868DFF8843140F2444141F21112984249
:1014A000704705D12968086840080A464000106066
:1014B00005F13E007047806800F00700062870477D
:1014C0006949884270470168024641F00101116094
:1014D000704705460C4600262000704703D1436C38
:1014E00023F4004343647047F8B500F088F80CB962
:1014F000027807E0042C08BF427803D0082C0CBF08
:101500008278C278022A01D10220F2BD0CB9027899
:1015100007E0042C08BF427803D0082C0CBF827867
:10152000C278012A5ED109B91A005BD100F08EF8A9
:1015300024B94FF0020E80F800E026E0042C0AD116
:101540004FF0020E80F801E000F0AAF8002849D11F
:1015500000F06AF821E0082C4FF0020E0AD180F862
:1015600002E000F091F800283CD12868C16841F4FD
:10157000006112E080F803E0200006D0042CE3D0E4
:10158000082CEED00C2C2AD033E000F052F80028C2
:1015900028D12868C16841F4007100F03FF800F0DC
:1015A00035F818BF884200F088F818BFB0F1804FB6
:1015B00010D0FFF765FF1CBF284B98420AD0FFF7F9
:1015C0005BFF18BF884205D0FFF77AFF1CBF274A90
:1015D000904210D1FFF76FFF0FD028680BE000F0AA
:1015E00047F808B10120F2BD2868C16841F4805174
:1015F000D3E7012601E0FFF766FF3046F2BD05465E
:101600000C461146002605F13E0070472868024A44
:10161000144990427047000000000140C16001225F
:101620002868214600F0E9BB2868C16841F4806160
:101630007047686AC0F83CC0686A07646F6AFA64F9
:10164000286800F13402686A02F011BB404ADFF8F2
:101650004471DFF844C170470004004000080040B6
:10166000000C004000040140004001400018004010
:10167000286BC0F83CC0286B0764286BC2642A68DA
:10168000286B403202F0F3BAE86AC0F83CC0E86A5E
:101690000764E86AC2642A68E86A3C3202F0E7BA82
:1016A000A86AC0F83CC0A86A0764A86AC2642F6828
:1016B000A86A07F1380202F0DABA03D1436C43F4A6
:1016C00000434364286890427047F8B5FFF701FF74
:1016D00006D0042C23D0082C24D00C2C25D027E0B5
:1016E00000F04DF802F035FBFFF7B4FEFFF7D0FE37
:1016F0001CBFDFF8A870B84206D1036A134204BFCA
:10170000036A0B42FFF7EAFEFFF7BEFE04BF006A62
:101710000842FFF7C6FE6CB90121017015E000F028
:1017200027F8DFE700F01DF8DCE700F013F8D9E751
:1017300001260AE0042C02D10121417005E0082CA9
:1017400007BF012181700122C2703046F2BD000046
:101750007D1A00082868C16821F48051C160286B97
:1017600070472868C16821F40061C160E86A704769
:101770002868C16821F48061C160A86A7047286840
:10178000C16821F40071C160686A704704F13C05CA
:1017900068787047311B0008D11A00080004014026
:1017A00010B50446206801698A0715D5C1688A0703
:1017B00012D56FF00201016101222277806910F0D9
:1017C000030F204602D002F0DFFB03E002F0DDFB56
:1017D00000F087F800202077206801694A0715D5B6
:1017E000C1684A0712D56FF0040101610222227715
:1017F000806910F4407F204602D002F0C5FB03E070
:1018000002F0C3FB00F06DF800202077206801692A
:101810000A0715D5C1680A0712D56FF008010161E2
:1018200004222277C06910F0030F204602D002F094
:10183000ABFB03E002F0A9FB00F053F80020207797
:1018400020680169CA0615D5C168CA0612D56FF0AD
:101850001001016108222277C06910F4407F204600
:1018600002D002F091FB03E002F08FFB00F039F8A8
:101870000020207720680169CA0708D5C168CA0717
:1018800005D56FF001010161204602F07FFB206861
:1018900001690A0608D5C1680A0605D56FF08001FE
:1018A0000161204602F073FB206801694A0608D5F1
:1018B000C1684A0605D56FF040010161204602F07B
:1018C00067FB206801698A060AD5C1688A0607D5C0
:1018D0006FF0200101612046BDE8104002F059BBC5
:1018E00010BD2046FEF762BC002084F83C0028466C
:1018F000704770B500F058F801D1022070BD01208A
:1019000084F83C0032B1042A15D0082A25D00C2ACC
:1019100034D045E0206800F077F92168886940F00C
:1019200008008861886920F0040088618A6930694C
:1019300002438A6135E0206800F092F920688169ED
:1019400041F400618161816921F480618161816973
:10195000326941EA0221816123E0206800F0B0F998
:101960002168C86940F00800C861C86920F0040017
:10197000C861CA6930690243CA6112E0206800F098
:10198000CEF92068C16941F40061C161C16921F4E7
:101990008061C161C169326941EA0221C16100E02F
:1019A0000125FFF7A1FF70BD0446002594F83C0017
:1019B00001280E46704770B5064606F13C05002426
:1019C0002878012801D1022070BD01202870022250
:1019D0006A70DFF890033268936803409360086888
:1019E000020018BF102830D0202818BF30282CD073
:1019F000402826D0502819D060281BD0702806D047
:101A0000B0F5805F27D0B0F5005F07D022E000F08E
:101A10002BF83068816841F0770105E000F024F888
:101A20003068816841F48041816014E000F018F86A
:101A300050210BE0CA684968306800F0BAF96021AB
:101A400004E000F00DF8402100E00146306800F0AD
:101A5000C2F900E001240120687000F00AF870BDAE
:101A6000CA684968306895E1CB684A688968306817
:101A7000B9E10021297020467047000010B5846B41
:101A8000626A904204F13D0104D1012020770122D5
:101A90004A7019E0A26A904204D102202077012204
:101AA0008A7011E0E26A904204D10420207701227A
:101AB000CA7009E0226B904204D1082020770122ED
:101AC0000A7101E001200870204602F063FA2BE061
:101AD00010B500F047F806D101232377C06900BB99
:101AE00001220A701DE0A36A984206D102222277E1
:101AF000C069B0B901224A7013E0E26A904206D18F
:101B000004232377C06960B901228A7009E0226B3F
:101B1000904201BF08232377C069002804BF012237
:101B2000CA702046FEF742FB0020207710BD00005F
:101B300010B5846B616A884208BF01200DD0A16A8C
:101B4000884208BF022008D0E16A884208BF04200A
:101B500003D0216B884201D108202077204602F073
:101B60001AFAE1E7846B626A904204F13E01704721
:101B70000000F0B505687C4C7C4B7D4E7D4FDFF856
:101B8000F8C1A04218BFB0F1804F07D0604518BF20
:101B9000B84203D0B04218BF98420DD14A6825F030
:101BA00070051543A04218BFB0F1804F17D06045B3
:101BB0001CBFB842B04212D098421CBF6F4A90423C
:101BC0000DD06F4EB0421CBF6E4A904207D06E4E91
:101BD000B0421FBF6D4A90426D4EB04203D1CA68F9
:101BE00025F4407515434A6925F0800515430560C5
:101BF000A0428D68C5620A68826212BF9842096974
:101C0000016301224261F0BDF0B5026A564F5208ED
:101C100052000262066A446885690B688A6825F08A
:101C2000730526F002061D431643504BB84218BFF9
:101C3000984207D1CA6826F008061643B84226F033
:101C4000040601D0984205D14B698A6924F4407496
:101C50001C43144344608561496841630662F0BDDA
:101C6000F0B5026A404E22F010020262B042056AEC
:101C7000436884690A6824F4E64444EA02248A68D2
:101C800025F0200545EA0215384A18BF904208D1D0
:101C9000CF6825F0800545EA0715B04225F04005DC
:101CA00001D0904206D14E698A6923F440631643FD
:101CB00043EA860343608461496881630562F0BD3D
:101CC000F0B5026A22F480720262056A4368C46950
:101CD0008E680A6825F4007524F0730445EA062529
:101CE0001443214E214AB04218BF904208D1CF6818
:101CF00025F4006545EA0725B04225F4806501D04A
:101D0000904206D14E698A6923F44053164343EA50
:101D100006134360C4614968C1630562F0BD70B5D4
:101D2000026A114E22F480520262B042046A426892
:101D3000C3690D6823F4E64343EA05238D6824F460
:101D4000005444EA05341CBF084DA84204D14D6933
:101D500022F4804242EA85124260C361496801640C
:101D6000046270BD8800FFFF0000014000040140D4
:101D7000000C00400008004000040040004001400A
:101D8000004401400048014000180040001C004091
:101D90000020004010B5036A046A6408640004620D
:101DA00023F00A03846924F0F00444EA02148461F5
:101DB0002EE010B5036A23F0100303628369046AFE
:101DC00023F4704343EA023324F0A004836144EA1D
:101DD0000114046210BD826822F07002114341F0C8
:101DE00007018160704710B5846824F47F44214363
:101DF000114341EA0321816010BD10B501F01F01BC
:101E0000036A01248C40A343036202FA01F1036ACE
:101E10001943016210BD30B50168846842184168F9
:101E200002EB5103C90703D54C4401E0491C08D11A
:101E30009A4218BF12F9011B01D10C3030BD12F8C3
:101E4000015B002904F8015BF0D4491EF7D5EFE7E8
:101E500050B1B0FA80F18840C91CC1F58461090510
:101E600001EBD0214005704701467047C0F3C751D0
:101E700081B1FF2906D0C110400721F0E04101F1F6
:101E80006051704741020CBF40F4E0016FF0004127
:101E90000020704700F0004100020AD0B0FA80FC38
:101EA00000FA0CF001F16051A1EB0C5101EBD021D3
:101EB0004005704730B540F2FF7C1CEA11541DBF4D
:101EC0001CEA1355644565453FE0641981EA030C3B
:101ED0006FF35F530CF0004C43F48013C90241F0E0
:101EE000004141EA505EC5021100A5FB0202002834
:101EF0004FF00000EEFB01204FF00001E3FB052155
:101F000018BF42F00102401800214941E3FB0E01D5
:101F1000A4F580640D0302D292184041494154F166
:101F2000010470DD450872F1004250F1000051EBF0
:101F30000451A1F5801102D441EA0C0130BD40F2F8
:101F4000FF7E4CEA0E51002030BD0CEA135564456B
:101F500018BF654581EA030C0CF0004C41D050EAF3
:101F6000410E1CBF52EA430E02E06146002030BD24
:101F700024422C441BD15FEA050EF6D0090302BFB0
:101F800001460020AEF1140EB1FA81F5AEEB050466
:101F900001FA05FE0C35C5F1200100FA05F5C8402F
:101FA0004EEA000E6FF35F5343F480139CE733F067
:101FB0000043B3FA83F504BFB2FA82FE75440B3DC9
:101FC000641BB5F1200E2FBF02FA0EF3AB40C5F132
:101FD000200E22FA0EFE38BF43EA0E03AA40641C0C
:101FE0007CE750EA410E14BF52EA430E6FF0000145
:101FF0004FF4001515EB430F8EBF194615EB410F3B
:102000009DE7B4D830BDD4F10104B4F120050FDA56
:10201000C4F12005520828BF42F0010210FA05FE63
:1020200001FA05F57244E2BFE0402843E1400FE0C9
:10203000352C9ADCC5F1200452EA400220FA05F260
:1020400018BF42F0010231FA05F0A1400A43002115
:1020500072F1004250F1000051EB0C0130BD2E0036
:10206000F0B540F2FF7581EA030C0CF0004C15EA64
:1020700011541DBF15EA1357AC42AF42E5E0BC4115
:10208000C1F31301C3F31303801A994143F480137E
:1020900004D2641E0018494180185941C90241EA1E
:1020A0005051B1FBF3F603FB1611A2FB0675D7EBFB
:1020B000C020A94102D2761E80185941C90241EAC6
:1020C0005051B1FBF3FE03FB1E11A2FB0E75D7EBC3
:1020D000C020A94103D2AEF1010E801859418902F6
:1020E00041EA9051760546EA8E2EB1FBF3F603FBEA
:1020F0001611A2FB0675D7EB8020A94102D2761EED
:1021000080185941C90241EA50514EEA060EB1FB0E
:10211000F3F603FB1611A2FB0675D7EBC020A9410D
:1021200002D2761E80185941C90241EA5051B1FBD2
:10213000F3F703FB1711A2FB0735D3EBC020A9412E
:1021400067F100070CBF004247F0010766F3D5278F
:102150004FEA1E31B80814F5806412DDBD0775F131
:10216000004250EB0E5051EB045111F5801F5CBF43
:1021700041EA0C01F0BD4CF07F6141F0E0410020EC
:10218000F0BDBD076D0840EA0E5041F48011D4F156
:102190000104B4F120060ADAC4F120060200E0408E
:1021A00001FA06F3E1401843B24015430EE0342C27
:1021B00013DCC6F1200445EA40056D0820FA06F25A
:1021C000154321FA06F0A1400D43002175F10042AC
:1021D00050F1000051EB0C01F0BD00205FEA0C0152
:1021E000F0BDCFB992185B41B3FA83F704BFB2FADE
:1021F00082F6BF190B3FB7F120062FBF02FA06F394
:10220000BB40C7F1200622FA06F638BF3343BA4076
:102210001CB1E419641E33E77F4231F00041B1FA8A
:1022200081F404BFB0FA80F6A4190B3CB4F1200687
:102230002FBF00FA06F1A140C4F1200620FA06F6ED
:1022400038BF3143A0403C1B1AE7AC421ABF05EA35
:102250001357AF4212E050EA41061CBF52EA430650
:10226000BFE750EA4107304661461CBF41EA0551CD
:10227000F0BD52EA430C08BFC143F0BD00204FF44B
:10228000001616EB410F98BF16EB430F08BF16EB75
:10229000410F24BFC14305E016EB430F0CBF61465D
:1022A0004CEA0551F0BD000001F000428B1AA3F189
:1022B0006051B1F5801F0ADBB1F17F6F1FD242EA96
:1022C000C102C10071F1004142EB507070470B1523
:1022D000C3F10903212B10D2890241EA90518002F7
:1022E0000128494141F0004121FA03F0C3F12003E4
:1022F000994071F1004150417047100070476FF0F4
:10230000000013EB103F5CBF000E42EAC050704764
:1023100041EC100B01BD80B551EC100B01F03CFEFF
:10232000F6E70000C1F30A5340F21E42D31A0CDD57
:10233000CA0283F3070342EA505242F00042DA40F5
:1023400002EBE17282EAE17070476FEAE17203F238
:10235000E13008B182F0004070470000002201F037
:10236000D9BF000010F0004160B148BF4042B0FA50
:1023700080F29040D21CC2F5846241EA025202EB24
:10238000D02140057047000070B491EA030F4FF070
:10239000004540F1BF806B40841A71EB030604D204
:1023A0006E40001BB141121973414FF4001C1CEB2D
:1023B000410F34BF7CEB430683E00C0DA4EB1356B6
:1023C000362E00F37C80012E45EAC32341DC43EA2C
:1023D000525312BFD20292025B08240545EAC12182
:1023E00041EA5051D2EBC020994125D407D1B0FA2F
:1023F00080F610FA06F162D00020203608E0B1FA2B
:1024000081F6B140C6F1200220FA02F21143B04039
:102410004FEAF474B4EB465434F001064FEA740406
:102420000AD8D6F50016760D04F00044F04061FAA3
:1024300006F25040F1404840C00A40EA415021F0C5
:10244000004128BF5FEA500550F1000044EBD12164
:1024500035E0DB0A45EAC121C90AB6F120050EDDE7
:1024600042EA0242120CC5F1200603FA06F6EB40DE
:1024700042EA06056D42984161F100010DE062FA01
:1024800006F5F240554063FA06FC82EA0C02F3407E
:102490005A406D42904161EB030111F4801F05D158
:1024A000641E620502D06D004041494121F4801153
:1024B000430875F1004350F1000041EB045170BC3A
:1024C00070471CEB410F15D223F0004352EA43063C
:1024D0000BD04FEA4C0CBCEB410F04D80C0D661E20
:1024E000342EB7DDEBE7801A994150EA410608BF68
:1024F0000021E4E708BF1CEB430F28BF6FF0000189
:10250000DDE7000070B491EA030F4FF000457FF55E
:1025100043AF6B40841A71EB030603D2001BB14139
:10252000121973414FF4001C1CEB410F34BF7CEBBC
:10253000430442E00C0DA4EB1356352E4FDC45EA64
:10254000C323DB0A45EAC121C912B6F120050DDD1E
:1025500063FA05F6EB4086EA0305124218BF45F020
:102560000105C01851F100010CD213E062FA06F522
:10257000F2405540F3415A40B340F3405A4080186E
:10258000594107D349085FEA30005FEA350528BFA3
:1025900045F0010501F58011420875F1004250F146
:1025A000000041EB04514E0016F5001F70BC38BF0F
:1025B00070470020090D090570471CEB410F10D230
:1025C00052EA43060BD0BCEB410F05D80C0DAB43D0
:1025D000661E342EB6DD02E0AB438018594170BC54
:1025E000704770BC7047034600E05B1C1A78002AF5
:1025F000FBD111F801CB83F800C013F8012B002A9E
:10260000F7D1704700F1010310F8011B11B110F868
:10261000011BFBE7C01A704738B5040001D1012047
:1026200032BD00F019F808B900F01AF800F01DF8F2
:1026300000F025F8FFE7416100F001F832BD2068A5
:10264000C16841F40051C1600020686020216970B8
:102650002020A8700020704704F13C05687870477E
:1026600000212970204600F040BE242068702068B8
:10267000C16821F40051C160204600F012BB2068FF
:10268000016921F4904101612068416921F02A012A
:1026900070472DE9F843054605F13C060C46707875
:1026A00020281746994649D10CB1380001D10120A4
:1026B00045E03078012841D0012131700020706060
:1026C0002122727001F056FEAF848046EF84A86824
:1026D000B0F5805F04BF286900280EBF274620465A
:1026E00000270021317004460EE014F8012B4260EF
:1026F00007E02868002CF8D137F8021BC1F3080165
:102700004160E88C411EE9844346E88CCDF8009096
:10271000002807D000228021284600F0D4F90028A4
:10272000E7D005E000224021284600F0CCF908B1AE
:10273000032004E020207070002000E00220BDE8AB
:10274000F2832DE9F843054605F13C070C46B878BD
:1027500020281646994650D1002C14BF002E012087
:102760004CD03878012848D0012139700020786099
:102770002222BA70286301F0FDFDAE858046EE8509
:10278000A868B0F5805F04BF286900280EBF264600
:10279000204600260021397004460EE02868406873
:1027A00000F07F0022E0B4B928684168C1F3080155
:1027B00026F8021BE88D411EE985E88DC8B1CDF8E9
:1027C0000090434600222021284600F07CF9002892
:1027D000E9D0032012E0A868B0F5805F04D000289B
:1027E00004BF28690028D9D12968486804F8010B7A
:1027F000E0E72020B870002000E00220BDE8F2836E
:1028000045E8003000287047216801F1140252E8C1
:10281000001F206800F1140321F0400143E800107C
:1028200000287047F8B5044625682A6828460146FE
:10283000C6684B6912F00F0F02F0200106F020006D
:1028400007D1002918BF00285DD02046BDE8F2401E
:10285000BCE1DF0702D416F4907F54D0D50705D52C
:10286000F60503D5256C45F001052564550705D50A
:10287000DE0703D5256C45F002052564950705D5CF
:10288000DE0703D5256C45F004052564120706D53F
:1028900008B9DA0703D5236C43F008032364226CDC
:1028A000002A2FD000291EBF0028204600F08EF9F4
:1028B00020684069216C0A0701D440061DD52046D6
:1028C00000F058F920684169480611D5FFF79CFFD0
:1028D000FCD1A06B60B10FF2E5210165A06B01F0A6
:1028E00038FA00280ED0A06B016DBDE8F44008470F
:1028F0002046BDE8F24001F043BD204601F040FD16
:1029000000202064F1BD206B012804F13D0340F05C
:102910008D80D00600D5F10640F18880002200921B
:1029200029680091226850680090009920684269E7
:10293000500641D5A16B0868406880B20028E1D0FC
:10294000A28D9042DEDAE085C869B0F5807F2DD097
:10295000216801F10C0050E8001F226802F10C050B
:1029600021F4807145E800100028F1D100F09DF8B5
:10297000490800F11405490045E800100028F5D188
:1029800000F093F800F1140521F0400145E8001033
:102990000028F5D1202058700021216300F08BF829
:1029A00000F0C1F8FAD1A06B01F097F9A18DE08D8C
:1029B000091A89B2204635E0A08DE18D411AE08DDB
:1029C00000281CBF88B200286ED02246106800F193
:1029D0000C0454E8004F00F10C0624F4907446E80F
:1029E00000400028F2D1106800F1140454E8004FB0
:1029F000640800F11406640046E800400028F2D1A3
:102A00002020587000231363106800F10C0353E872
:102A1000003F00F10C0523F01003FFF7F1FEF3D1A6
:102A200089B21046BDE8F44001F0ABBC10062BD5CE
:102A3000310629D51878212836D1A068B0F5805FF5
:102A400004BF2069002809D1206A01882A46C1F301
:102A500008015160206A811C216205E0206A411C46
:102A60002162226800785060E08C401EE08480B2D1
:102A7000D0B92068C16821F08001C1602068C168B8
:102A800041F04001C160F1BD50060DD571060BD576
:102A90002846C16821F04001C160204620211970FC
:102AA000BDE8F24001F06EBCF1BD206800F11401F8
:102AB00051E8001F7047206800F10C0151E8001F29
:102AC00000F10C0370472DE9F041069C05460E46C7
:102AD00090461F46286801683140B1420CBF012072
:102AE000002040451CD114F1010FF3D024B101F0B6
:102AF00041FCC01B8442EDD200F01BF821F4D071E0
:102B000000F013F8F8D100F01CF8FCD105F13C00FE
:102B1000202141702022827000210170032000E0FA
:102B20000020BDE8F08121F0100143E800100028EA
:102B30007047286800F10C0151E8001F00F10C03F8
:102B40007047286800F1140151E8001F490800F19E
:102B50001403490043E800100028704744E80021AE
:102B600000297047016801F10C0252E8002F01F1C1
:102B70000C04704710B5FFF7F5FF22F49072FFF7D1
:102B8000EDFFF8D100F00BF8016B012901D100F045
:102B900073F8202180F83E100022026310BD016806
:102BA00001F1140252E8002F520801F114045200FE
:102BB00044E800210029F2D170470000806B002119
:102BC000C1850022C28401F0DBBB00001CB590F877
:102BD0003E1022294ED18168826AB1F5805F0AD108
:102BE000016969B903685968C1F308011180826AF3
:102BF000911C81620FE0002904BF0169002902D104
:102C00000368596803E00168496801F07F011170A9
:102C1000816A4A1C8262C18D491EC18589B239BB55
:102C20000168CA6822F02002CA600168CA6822F4FA
:102C30008072CA6001684A69520852004A6100F015
:102C40002AF813D10021016300F016F80268116818
:102C5000CB0607D5002400941268009203685968D7
:102C60000091009A818D01F08CFB01E001F08BFB5B
:102C7000002016BD022016BD026802F10C0151E8C9
:102C8000002F036803F10C0422F0100244E8002135
:102C90000029F1D17047202180F83E10026B012AF3
:102CA000704770B5044622681169E06821F440510C
:102CB00001431161D3682748A168034020690B4391
:102CC00061690343E0690B430343D3605169A06921
:102CD00021F44071014351611F498A421CBF1F48C2
:102CE000824202D100F032FF01E000F027FF62686B
:102CF0002568E4691921B4F5004FA1FB00016FF0CC
:102D0000630612D1D30F520001F03EFB00F028F809
:102D1000F60032366420B6FBF0F0420002F4F8729E
:102D200002EB011200F0070010E0930F920001F097
:102D30002BFB00F015F8360132366420B6FBF0F0BC
:102D400000F0F00202EB011200F00F008018A86002
:102D500070BD0000F369FFFF001001400014014046
:102D60006421B0FBF1F106FB01067047002201F07F
:102D70008FBB000080B50B48016841F40071016011
:102D8000026842F480620260016841F4807101606F
:102D9000032000F02CF90F2001F094FB00F0ECF977
:102DA000002002BD003C02402DE9F84F0D460026F0
:102DB000DFF8EC11DFF8EC210F23044601202F6827
:102DC000B04000EA0708804540F0E0804FEA460C3A
:102DD000032707FA0CF76FEA070E6F6807F003097D
:102DE000B9F1010F1CBF07F00307022F12D1A7682A
:102DF000D5F80C900EEA070709FA0CF949EA07071B
:102E0000A760676827EA00006F68C7F30017B7403C
:102E100038436060B0002F7907F00307032F21D0FB
:102E2000E768D5F808900EEA070709FA0CF949EAAD
:102E30000707E7602F7907F00307022F12D1F70881
:102E400004EB870700F01C09D7F820A003FA09FB60
:102E50002AEA0B0AD5F810B00BFA09F949EA0A096F
:102E6000C7F8209027680EEA070E2F7907F00307AE
:102E700007FA0CF747EA0E0CC4F800C06F6817F4A5
:102E8000403F00F083804FF0000ECDF800E04FEAA5
:102E9000960C176847F48047176000F00C00D2F8D2
:102EA00000E0414F0EF4804ECDF800E0DDF800E088
:102EB00057F82C7003FA00FE27EA0E0E3B4FBC4277
:102EC00008BF00272CD03A4FBC4208BF012727D0AB
:102ED000384FBC4208BF022722D0374FBC4208BF40
:102EE00003271DD0354FBC4208BF042718D0344FEC
:102EF000BC4208BF052713D0324FBC4208BF06278B
:102F00000ED0314FBC4208BF072709D02F4FBC421B
:102F100008BF082704D02E4FBC420CBF09270A2740
:102F200007FA00F040EA0E00DFF87CE04EF82C00D3
:102F30006FEA0800D1F808C06F6800EA0C0CFF02C5
:102F400048BF48EA0C0CC1F808C0D1F80CC06F6843
:102F500000EA0C0CBF0248BF48EA0C0CC1F80CC0D8
:102F6000D1F804C06F6800EA0C0CBF0348BF48EA00
:102F70000C0CC1F804C0D1F800C000EA0C0C686861
:102F8000C00348BF48EA0C0CC1F800C0761C0F2EE5
:102F90007FF614AFBDE8F18F02B909048161704773
:102FA000003C014044380240083801400000024023
:102FB0000004024000080240000C024000100240E1
:102FC0000014024000180240001C02400020024091
:102FD000002402400901020002D4294881547047AC
:102FE000284B02F00F021A4402F8041C7047264BCB
:102FF00019684FF6FF020002114000F4E060084338
:10300000224908431860704770B51F4B1C68C4F311
:1030100002230124C3F10705052D2EBF0F2504FA55
:1030200005F56D1E1E1D072E34BF0023DB1E294033
:10303000994004FA03F3BDE870405B1E1A40114347
:10304000C8E7010007D4012200F01F01104B8A409D
:10305000400943F82020704710B5401EB0F1807F32
:1030600001D3012010BD0B4C60600F214FF0FF30E9
:10307000FFF7B0FF0021A16007202060002010BDF5
:1030800000E400E018ED00E00CED00E00000FA05BF
:1030900000E100E010E000E070B500F13C031A78B8
:1030A000012A01D1022070BD01221A7002245C7035
:1030B00005686E68AC680A6826F0700616436E6094
:1030C00002681148824218BFB2F1804F11D01148F6
:1030D00082421CBF104DAA420BD00D4882421CBF39
:1030E0000E4DAA4205D0094882421CBF0C4DAA428F
:1030F00004D1486824F0800404439460012159708D
:103100000020187070BD0000000001400040014028
:10311000000C004000040040000800400004014092
:103120000018004010B590F83C20012A01D102207F
:1031300010BD012280F83C20CC688A684B6824F4DA
:103140004074144324F480641C430A680B6924F41B
:103150000064144324F480541C434A69C96924F46C
:1031600000541443026824F480440C435464002344
:1031700080F83C30002010BD81B00020009000227B
:103180007948416841F480414160416801F48041DF
:10319000009100990092036843F080530360006837
:1031A00000F080500090009801B0704710B58CB0CE
:1031B000044630220021684601F0A4F921686B4AD8
:1031C00091420DD120234FF4007100930A9168467B
:1031D00001F0A2F908B1FEF769F86549012008601D
:1031E0000CB010BD38B50446624A20685E49904272
:1031F0002AD1002000904A685F4D42F001024A60E7
:103200004FF0406248685D4900F00100009000986E
:1032100029604020A8600021E9604FF480602861A7
:103220004FF4006169614FF40050A86100216A60A9
:10323000E96129626962284600F0A2FC08B1FEF744
:1032400035F86562AC6331BD4D4A904214D100201F
:1032500000900A6842F002020A600022086800F04A
:1032600002000090002100981D20FFF7CDFEBDE870
:1032700032401D20FFF7E5BE31BD10B586B000F02D
:1032800066F820683B4A3F49904215D100200090E3
:103290000A6842F010020A600222086800F010007A
:1032A00000904FF40071009837480191029200217C
:1032B00003910491012112E0314A904213D1002080
:1032C00000900A6842F001020A600222086800F0D9
:1032D00001000090802100F040F804910221059146
:1032E00001A9FFF761FD06B010BD10B586B000F072
:1032F0002EF821682548814227D1002221480092DA
:10330000016941F400310161016901F4003100916A
:10331000009900920C21036843F00103036002222C
:10332000006800F00100009000F017F80322072168
:103330000591049201A9FFF737FD00220021262004
:10334000FFF762FE2620FFF77CFE06B010BD0446A4
:103350001422002101A801F0D5B800980C48019171
:10336000029200210391704740380240002800403B
:103370003C0E47420000014018250020286402400E
:103380000004004030380240001002400044004079
:103390000000024010B5040001D1012010BD607F83
:1033A00020B9002121772046FFF700FF00F034F814
:1033B00053202168486200F091F801001AD1216879
:1033C000DFF864028A6802408A6022689368606855
:1033D0002169034360690B43034393602068E168FC
:1033E000016120680169A26841EA02410161204649
:1033F00000F05BF901000BD121680A6C22F48022F5
:103400000A642268136CA1690B431364012262777A
:10341000FF212268516210BD02206077CA21226814
:1034200051627047F8B504460D46207F012801D14E
:103430000220F2BD0120207702216177002A206856
:10344000806815D141065CBF0020E870287800F044
:1034500041F90746687800F03DF90602A87800F0C7
:1034600039F946EA07460643E87846EA80560DE011
:1034700041065CBF0020E8706E782978A878360293
:1034800046EA0146E978064346EA81562168CA20A1
:10349000486253222068426200F020F8010013D1F4
:1034A0002168DFF8880106400E602068826822F4F7
:1034B0008022826022689368E96828690B4303438D
:1034C0009360204600F0F1F8010004BF012161770C
:1034D0002168FF224A6200232377F2BD2046C4E020
:1034E00030B50068836A4B600469C4F30E048C60D5
:1034F0000368DFF8380103401C0C04F03F040C7033
:103500008B701D0A9B0D4D70CB7022B900F078F8BE
:1035100012FB03028A70002030BDF8B504460E4647
:10352000207F012801D10220F2BD01202077022155
:10353000617775786ABBE80603D505F0EF050A35B3
:103540007570F07800F0C6F80746707800F0C2F8A1
:103550000502B07800F0BEF845EA0745054330782B
:1035600045EA40352068CA214162532221684A62F7
:10357000FFF7B4FF010007D12168DFF8B400054070
:103580004D60204600F091F8010004BF01216177F1
:103590009EE7F07831782D0245EA0045B078054382
:1035A00045EA4135DEE730B50368DFF884005B6843
:1035B00003408B701D0A1C0C05F01F055B0BCC70C3
:1035C0004D7003F007030B7092B9C87803090A2203
:1035D00000F00F0012FB0300C8704878030900F0E8
:1035E0000F0012FB03004870887800F003F88A701F
:1035F000002030BD030900F00F0012FB03027047EA
:10360000087803090A2200F00F0012FB030008707B
:103610004878030900F00F0012FB03004870887817
:10362000030900F00F007047BFFF8FFF7F7F7F000F
:103630003FFFFF0038B504462068C16821F0A001B3
:1036400000F010F805462068C168880608D400F02C
:1036500091FE401B40F2E9318842F4D3032032BD91
:10366000002032BDC16000F085BE70B50446002563
:103670002068C1684A0616D4C16841F08001FFF78E
:10368000F1FF064609E000F075FE801B40F2E931CB
:10369000884202D30420607701252068C16848066B
:1036A00001D42800EFD0284670BD38B50446002567
:1036B0002068C16821F08001C160206881688806A7
:1036C00006D42046FFF7B6FF10B10420607701252D
:1036D000284632BD002101E0491C0A38C2B20A2A3C
:1036E000FAD240EA0110C0B2704700000EB4C0B573
:1036F000024603A800210190009101AB012104487A
:1037000078440C3001F01AF806BC5DF810FB00BFDD
:10371000712600002DE9F843040016D02078DFF868
:103720000063C10713D5B06800F00C00042807D06F
:10373000B06800F00C0008283DD1706841023AD50D
:103740003068810303D56068002800F06481207828
:10375000B44F810719D5B06810F00C0F07D0B068CE
:1037600000F00C0008285BD17068410258D4306822
:10377000810703D5E068012840F04D813168206958
:1037800021F0F80141EAC00131602178080779D5BC
:103790006069A549002868D001220A6000F0EAFDAE
:1037A0000546706F81076DD400F0E4FD401B0228D0
:1037B000F7D9032032E16068B0F5803F04D130686A
:1037C00040F48030306011E0B0F5A02F306806D1B1
:1037D00040F480203060316841F4803105E020F40D
:1037E00080303060316821F480213160606858B1E8
:1037F00000F0C0FD054630688103A8D400F0BAFD92
:10380000401B6528F7D3D4E700F0B4FD05463068C7
:1038100081039CD500F0AEFD401B6528F7D3C8E7B7
:10382000E068A8B10121396000F0A4FD05463068C8
:10383000810705D400F09EFD401B0228F7D9B8E7A8
:103840003068216920F0F80040EAC10030609CE750
:10385000386000F08FFD05463168880795D500F087
:1038600089FD401B0228F7D9A3E7086000F082FD1C
:103870000546706F810705D500F07CFD401B0228CE
:10388000F7D996E72078410760D5306C0025C10054
:103890000BD4002000900125316C41F0805131643F
:1038A000306C00F0805000900098DFF88081D8F8EC
:1038B0000000C10513D4D8F8000040F48070C8F8A7
:1038C000000000F057FD8146D8F80000C10506D47D
:1038D00000F050FDA0EB09000228F5D969E7A068C7
:1038E000012805D00528306F06D140F0040030676C
:1038F000306F40F0010005E0400840003067306F55
:1039000020F00400306741F28938A06860B100F00F
:1039100031FD8146306F810713D400F02BFDA0EB01
:1039200009004045F6D344E700F024FD8146306F9E
:10393000810706D500F01EFDA0EB09004045F6D337
:1039400037E71DB1306C20F080503064A06900284A
:1039500063D0B16801F00C0108293AD002282AD1BD
:103960000020386600F006FD05463068810105D567
:1039700000F000FD401B0228F7D91AE7E069216A30
:10398000626A0843A16A490840EA8210491E40EA77
:103990000140E16A40EA016070600120386600F091
:1039A000E9FC04463068810137D400F0E3FC001BD9
:1039B0000228F7D9FDE60020386600F0DBFC04465B
:1039C0003068810129D500F0D5FC001B0228F7D909
:1039D000EFE601281FD07068E26900F4800191428F
:1039E00002BF00F03F01226A914201BF47F6C07159
:1039F0000140626AB1EB821F0DD1A26A520800F445
:103A00004031521EB1EB024F02BF00F07060E16A1C
:103A1000B0EB016F01D0012000E00020BDE8F2838F
:103A20000038024000004742800E474200700040CC
:103A30002DE9F04104000F4654D0494E306800F0A3
:103A40000F00B84202D200F073F84BD12068454D08
:103A5000810712D5400703D5A96841F4E051A96058
:103A60002078010703D5A86840F46040A860A968E1
:103A7000A06821F0F0010143A9602178C80729D589
:103A80006068012802D129688A0305E0022818BF6E
:103A9000032803D129688A0103D423E029688A070F
:103AA00020D5A968890840EA8100A86000F062FC7E
:103AB0008046A868616800F00C00B0EB810F09D067
:103AC00000F058FCA0EB080041F289318842F0D3A5
:103AD00003202BE0306800F00F00874204D200F092
:103AE00027F801D0012021E02078410705D5AA68F8
:103AF000E06822F4E0520243AA602178080706D564
:103B0000A968206921F4604141EAC001A96001F07F
:103B1000ADFDAA681449154BC2F30312895CC84075
:103B200018601348006800F0CDFC0020BDE8F0816B
:103B30003770316801F00F01B94270470B480D4AE8
:103B4000006813680C49C3F3822206E00748094A5B
:103B5000006813680849C3F34232895CC840704763
:103B6000003C024000380240205D00087C0000203C
:103B70007800002008380240A85D00087047000067
:103B800070B5044600F0F6FB06460CB9012070BD86
:103B900004F1340502206870002129702068026851
:103BA00052085200026022681068C1070AD500F06E
:103BB000E1FB801B0628F6D32020286203216970D0
:103BC000032070BD1368DFF8380361680340A06804
:103BD0000B43E168034320690B4361690343A06918
:103BE0000B43E1690343206A0B43616A03430429E1
:103BF00003D1E16A206B0B430343136023685A69C6
:103C0000606AD208042840EAC2020AD1A66AE16AC0
:103C1000324331B1A06988B9002E18BF022E1FD0DF
:103C200016D35A61204600F097F9A96A3F228A40CC
:103C30008260002028620121697070BDB0F5005FCC
:103C40000AD1032EEDD8DFE806F00D0B0D03E8E7EF
:103C5000B1F1C07FE5D105E0022E03D9F61EE0D117
:103C6000C801DED5402129620120687070BDF8B519
:103C7000044604F1340600253078776A012801D122
:103C80000220F2BD0120307096F801C0BCF1010F96
:103C90001FD102207070AC46C6F820C0204600F04C
:103CA0004BF9B06A3F2101FA00FCC7F808C0206850
:103CB000016841F016010160F06820B120680168D8
:103CC00041F0080101602068016841F001010160D4
:103CD00001E0357002252846F2BDF8B5044604F12E
:103CE00034056E6A00F046FB07466878022805D066
:103CF00080212962002028700120F2BD206801681F
:103D000021F01601016000F004F9E868002804BF02
:103D10006869002801D000F008F900F000F9206877
:103D20000168CA070CD500F025FBC01B0628F6D396
:103D30002020286203216970002028700320F2BD32
:103D4000A86A3F218140B16000200121697028707C
:103D5000F2BD90F83510022903D08022426501207F
:103D60007047052180F8351000680268520852003B
:103D70000260002070472DE9FC41044604F134063E
:103D80000020604900904FF41650776A0A683D6839
:103D9000B2FBF0F8B06A082100F0B7F80ED0206846
:103DA000026853070AD5026822F004020260B06A72
:103DB0008140B960316A41F001013162B06A25FA8F
:103DC00000F1CA070BD521684A69110607D50122FF
:103DD00002FA00F0B860306A40F00200306204215C
:103DE00000F092F808D021680A68930704D5B860FB
:103DF000306A40F004003062102100F085F81BD0DA
:103E000021680A68130717D5B860206801684A035B
:103E100007D5006801030BD5716969B12046884751
:103E20000AE00168CA0503D4016821F008010160B5
:103E3000F16809B120468847B06A202100F065F892
:103E40003FD021680A68D3063BD5B86020687178F6
:103E500005291CD1026822F01602026000F059F810
:103E6000F068002804BF7069002801D000F05DF8F8
:103E70003F22B06A8240BA60012171700020F1696E
:103E80003070002939D02046BDE8FC410847016860
:103E90004A0307D5006801030FD4316989B1204670
:103EA00088470EE00168CA0507D4016821F01001B7
:103EB00001600120707000213170B16809B12046A5
:103EC0008847306AC8B1306AC10710D505207070C4
:103ED00000F025F80098401C8045009003D320682E
:103EE0000168CA07F6D40120707000213170B169F1
:103EF00019B12046BDE8FC410847BDE8F381000048
:103F00003F8010F07C000020B06A01FA00F005420A
:103F100070472068416921F0800141617047206845
:103F2000016849084900016070472068016821F074
:103F3000080101607047000030B50468256825F469
:103F40008025256063608068402802D1A260E1601E
:103F500030BDA160E26030BD30B50146182308686D
:103F600007A400F0FF02103AB2FBF3F2800AA55C4E
:103F7000CD658002042A28BF001D886530BD000081
:103F800000061016000610167047704770477047FD
:103F90007047704770477047F8B52DED068B41ECC0
:103FA000180B53EC182BBF48BF49FDF783FF41ECBA
:103FB000190B0C4624F00041BC4ABD4B01F086FBB6
:103FC00059D29FEDD00B51EC100B04F0004453EC90
:103FD000192B2143FEF7D8F9FEF7A4F9040047D0C6
:103FE000FEF7C0F90022B44BFDF764FF41EC190B5A
:103FF00053EC192B4FF0A040B049FDF75BFF53EC99
:10400000182BFEF7C1F906460F4653EC192B4FF05B
:10401000C040AB49FDF74EFF32463B46FEF7B4F9D0
:1040200005460E4653EC192B4FF00050A549FDF7FD
:1040300041FF2A463346FEF7A7F906460F4653ECE2
:10404000192B0020A049FDF735FF32463B46FEF70D
:104050009BF906460F4653EC192B4FF0005095493B
:10406000FDF728FF32463B46FEF78EF941EC180B70
:1040700004F00304A1E051EC180B48004015401C6B
:1040800009D1090340F0AE80BDEC068B4FF0FF3044
:104090006FF00041F4BD51EC180B31F0004108BF46
:1040A000002800F09F809FED970B04F0004453EC34
:1040B000102B1846044351EC100B53EC192B2146DE
:1040C000FEF762F94B0043EAD073420041EC190B52
:1040D000002B08BF002A19D040F23344A4EB5352FE
:1040E000352A04DB00F0000001F000410CE0202A3A
:1040F00003DD203AD140914000E001D1002003E0EF
:10410000002AC4BFD040904041EC190B51EC190B70
:1041100020F0000231F0004308BF002A47D053ECE2
:10412000192B00206449FDF7C5FE41EC1A0B53EC36
:104130001A2B4FF0A0406149FDF7BCFE53EC182B41
:10414000FEF722F904460D4653EC1A2B4FF0C040FF
:104150005B49FDF7AFFE22462B46FEF715F90646F2
:104160000F4653EC1A2B4FF000505649FDF7A2FEB4
:1041700032463B46FEF708F904460D4653EC1A2B2F
:1041800000205149FDF796FE22462B46FEF7FCF82B
:1041900004460D4653EC1A2B4FF000504549FDF7ED
:1041A00089FE22462B46FEF7EFF841EC180B51EC46
:1041B000190BFEF7B7F800F0030451EC180B21F0CF
:1041C000004100224FF0795301F080FA04F001041D
:1041D0000BD23CB100203D4953EC182BFDF740FFBA
:1041E00041EC180B51EC180B58E053EC182B51EC28
:1041F000180BFDF75FFE41EC1A0B53EC1A2B3448F9
:104200003449FDF757FE344A344BFEF7BDF853EC02
:104210001A2BFDF74FFE324A324BFEF7B5F853EC3E
:104220001A2BFDF747FE00222F4BFEF7ADF841ECAD
:10423000190B53EC182B51EC1A0BFDF73BFE0646FD
:104240000F4653EC1A2B29482949FDF733FE294A1A
:10425000294BFEF799F853EC1A2BFDF72BFE274A52
:10426000274BFEF791F832463B46FDF723FE53EC11
:10427000182BFEF789F841EC100B54B151EC190BD7
:1042800053EC102BFDF7ECFEBDEC068B81F00041EA
:10429000F4BD53EC192BFDF7E3FE00BFBDEC068B1C
:1042A000F4BD000083C8C96D305FE43F0000A0FF8B
:1042B000FFFFDF419A833BBB0000303EFB21B9C1C9
:1042C000B41011C026A651BE5C14D3BC0000F0BFD0
:1042D0006C9E741E68522BBFA908265CB9E7973FF5
:1042E000D5FFB699218BDDBF0000F03FDB995594D7
:1042F0009A63DFBED625F78675FC663F6955C3888D
:10430000986BC0BF000000000000E03F62F30F2286
:1043100062F31F42401810F0030308D0C91A1FD3DC
:10432000DB0748BF00F8012D28BF20F8022D13003D
:1043300030B414461546103928BF20E93C00FAD89D
:10434000490728BF20E90C0048BF40F8042D890028
:1043500028BF20F8022D48BF00F8012D30BC70475F
:10436000C91818BF00F8012DCB0728BF00F8012D90
:104370007047000001484068704700BF700000208F
:104380007047704770477047D3BBD9B1B2F5803FD3
:104390005BD2022A1ED98C46B1FBF2F102FB11C39B
:1043A0001B0443EA1043B3FBF2FC02FB1C3380B254
:1043B00040EA0343B3FBF2F002FB103240EA0C4048
:1043C00000237047022A05D98446B0FBF2F002FBB5
:1043D00010C270474AB105D100F0010249085FEAF6
:1043E0003000704700220023704701F089B90B00AC
:1043F0000200002100207047F7D3002200237047FD
:10440000904271EB030CF2D370B5B1FA81F4B3FAB8
:1044100083F52C1BA340C4F1200532FA05F6334383
:10442000A2405FF00046E64002E05B085FEA32022D
:10443000841A71EB030524BF204629467641F4D344
:1044400002000B003000002170BD70B5B1FA81F49C
:10445000B2FA82F5C4F120046419B4F12006DAD36B
:10446000B2405FF00044F440002502E052085FEAE9
:104470003303C61A71EB020E24BF30467146644105
:104480006D41F3D302000B002000290070BD000035
:1044900000B500BF130096469446103928BFA0E827
:1044A0000C50FAD85FEA417C28BF0CC048BF40F8E6
:1044B000042BC90728BF20F8022B48BF00F8012BA6
:1044C00000BD000038B50D4D0D4B2A7804464FF461
:1044D0007A711868B1FBF2F2B0FBF2F0FEF7BCFDA6
:1044E00050B9102C08D2002221464FF0FF30FEF7C1
:1044F0008BFDAC60002032BD012032BD7000002079
:104500007C00002010B5044610460A4601462046AD
:10451000FFF7FCFE204610BD2DE9FC410446DFF804
:1045200000622078DFF8FC51DFF8FC7110F0430FD7
:1045300043D000203860FFF71DFF8046296808013E
:1045400007D5FFF717FFA0EB08000228F6D90320D4
:10455000DCE02078C10705D5A1686068090741EA59
:1045600080113160207881070CD53068E26861687D
:1045700000F0CEF83060B068E1694009491E41EAB8
:104580004010B0602078410608D5E16860680906EF
:1045900041EA8011A06841EA00713160012139606F
:1045A000FFF7E8FE80462868010106D4FFF7E2FE27
:1045B000A0EB08000228F6D9C9E7207810F00C0F0C
:1045C00040D00020B860FFF7D5FE80462868810003
:1045D00006D5FFF7CFFEA0EB08000228F6D9B6E714
:1045E000207841070DD570686269216900F090F864
:1045F0007060B068216A20F4F850491E40EA01203A
:10460000B060207801070FD57068216900F07060F4
:1046100040EA8110A16940EA01707060B168606A87
:1046200021F440310143B1600121B960FFF7A2FEDE
:1046300006462868810005D4FFF79CFE801B0228EF
:10464000F7D984E72078810658D500200090296C9E
:10465000DFF8D87041F080512964286C00F0805058
:1046600000900098396841F480713960FFF782FE4C
:1046700006463868C10505D4FFF77CFE801B02287A
:10468000F7D964E7286F10F440701EBFA16A01F4E7
:10469000407188421AD0286FDFF8941001220A6016
:1046A00000230B6020F440702867286FC1070DD5E8
:1046B000FFF760FE0646286F810707D4FFF75AFE12
:1046C000801B41F289318842F5D340E7A16A01F4A9
:1046D0004070B0F5407F07D1AA68164822F4F8125E
:1046E00001401143A96003E0A86820F4F810A86015
:1046F000286FA16AC1F30B01084328672078C1061F
:1047000003D594F82C000C4908600020BDE8F68120
:10471000120642EA811200F0E040104370470000A8
:104720008438024000380240680047420070004070
:10473000400E4742FFFCFF0FE01147422DE9F14FC9
:10474000B0B0924604910DF142013A9A2B919946EC
:104750004A7000200AE01AF8011B0498309A90472A
:104760000028049000F06A860D98401C0D909AF87D
:10477000000050B12528EED10021002207910892B7
:1047800009910A920B910C9204E00D9800F058BE2A
:1047900041F001011AF8010F2028F9D023280CD08C
:1047A0002B2804D02D2805D0302809D00BE041F06B
:1047B0000201EFE741F00401ECE741F00801E9E70D
:1047C00041F01001E6E72A280FD1D9F8002052F86D
:1047D000040BC9F8002000280F9003D540420F9029
:1047E00041F004010AF1010A14E00F92DFF8583C8D
:1047F0000AE00F98984205DA00EB800402EB4402CD
:10480000303A0F920AF1010A9AF80020A2F1300022
:104810000A28EED39AF800002E2803D04FF0FF327A
:104820000E9229E01AF8010F2A2809D1D9F80000C0
:1048300050F8042BC9F800000E920AF1010A1BE09F
:104840002D280CBF0AF1010A002000220E92DFF889
:10485000F84B0BE040B90E9AA24205DA02EB820552
:1048600003EB4503303B0E930AF1010A9AF800303E
:10487000A3F130020A2AEDD3ADF840100FF6CC3088
:104880009AF8001000F03EFF08B11AF8010B8DF8FD
:1048900042009DF84200682805D19AF80000682877
:1048A0000CD1622106E06C2804BF9AF800006C2845
:1048B00004D171218DF842100AF1010A12A8069064
:1048C0001AF801BBBBF125012CD01C3900F0D681B0
:1048D000091F022940F2D281133900F0E18409391D
:1048E00000F0CC81891E00F07685491E00F02385FA
:1048F000491E022940F2C281091F00F01C85491F90
:1049000000F03181491E00F0CB84491E00F0D880B0
:10491000C91E0DD0891E00F0C384C91E00F0C084DA
:1049200000F064BD25238DF84830012100F069BDF9
:10493000D9F8000050F8044BC9F80000002C059489
:1049400040F0AB802B994878002800F0A1804FF010
:10495000FF340FF6003000F0E1FE201A40F06E85C3
:1049600000F050BD01236A4602A9304600F042FE25
:10497000002840F063856D1EF4D13096079D12AF7C
:1049800075B1309E17F8012B02A9304600F022FEC7
:10499000002801D46D1EF5D10028309640F04E85D8
:1049A0000A9D3020002D8DF800000CDD309E012383
:1049B0006A4602A9304600F01DFE002840F03E8500
:1049C0006D1EF4D13096059F089D75B1309E17F885
:1049D000012B02A9304600F0FDFD002801D46D1E18
:1049E000F5D10028309640F029850B9D3020002D10
:1049F0008DF800000CDD309E01236A4602A9304686
:104A000000F0F8FD002840F019856D1EF4D13096B5
:104A100005980899099D471875B1309E17F8012B24
:104A200002A9304600F0D6FD002801D46D1EF5D154
:104A30000028309640F002850C9D3020002D8DF826
:104A400000000CDD309E01236A4602A9304600F0CA
:104A5000D1FD002840F0F2846D1EF4D130969DF80F
:104A6000400041077FF583AE2020002C8DF8000028
:104A70007FF77DAE309D01236A4602A9284600F0EB
:104A8000B9FD002840F0DA84641EF4D130956EE65A
:104A90000FF6C030059000F0B5BC0E9D002D04D57A
:104AA0002046FDF7AFFD044607E02A46204600F009
:104AB00055FE002814BF041B2C46089400F0A2BC2D
:104AC000D9F8001051F8040BC9F8001020F00004C8
:104AD000002121F0FF3512ABCDE902450593DDE958
:104AE000022306993C2413B90AB90E98A0B102F02A
:104AF0000F05641E30353A2D08DA12090D5542EAC9
:104B000003721B0908BF002A02D105E02735F4E72C
:104B100005980D19A842EAD308190590C4F13C0282
:104B20000E98089282420ADABDF84010821A4FF6B7
:104B3000EF7001400A92ADF8401000F063BC00280D
:104B400040F160849DF8400000F01400102840F00F
:104B500059840F9B07990A985B1A1B1A9A1A002A04
:104B600040F350849AE32B99487820B14FF0FF34FA
:104B70000FF6B020EFE69DF84200622860D068286A
:104B800017D06A283FD06C2806D0712847D07428E7
:104B90002CD07A281DD062E0D9F8001051F8040B0F
:104BA000C9F80010002866D14FF0FF340FF68C20B2
:104BB000D1E6D9F8001051F8040BC9F8001020B95B
:104BC0004FF0FF340FF67420C5E60D99018000F018
:104BD00019BCD9F8001051F8040BC9F800100028CE
:104BE00049D14FF0FF340FF65420B4E6D9F8001045
:104BF00051F8040BC9F8001000283CD14FF0FF34E5
:104C00000FF63820A7E6D9F8001051F8040BC9F8C0
:104C1000001080B94FF0FF340FF620209BE6D9F842
:104C2000001051F8040BC9F8001020B94FF0FF3400
:104C30000FF608208FE60D9AD317C0E90023E1E3B1
:104C4000D9F8001051F8040BC9F8001020B94FF042
:104C5000FF340FF6E8107EE60D990170D2E3D9F823
:104C6000001051F8040BC9F8001020B94FF0FF34C0
:104C70000FF6C8106FE60D990160C3E3D9F8002064
:104C8000D21D22F00702C9F80020D2E90001083243
:104C9000C9F80020CDE90201C80F02D007982D21E4
:104CA0000AE0BDF84000810702D507982B2103E0F8
:104CB000C00705D50798202112AA1154401C07905F
:104CC00012A80799DDE9024543184BF0200061283E
:104CD000059321AE0BD00E98002802D506200E9029
:104CE00005E001BF4BF02000672801210E91DDE9AE
:104CF000020148004015401C0A460DD109030BD0A3
:104D0000ABF1610703201A2F089002D20FF6481169
:104D10000DE00FF648110AE070B912030CD1ABF1A7
:104D2000610703201A2F08901CD30FF638110322B5
:104D3000184600F03FFD65E3DDE902016A4600F038
:104D40008DFDCDE902014BF02000612811D10598BD
:104D500030210170821C0592BBF1610F0CBF7821DC
:104D6000582102E00FF6F801E1E741700798801C36
:104D70000790DDE9020120F0000231F0004308BF96
:104D8000002A02D10025002445E14BF02008B8F1AB
:104D9000610F40F095800E98002847BF21210191B6
:104DA000401C0190019F7F1C2046294600220023C1
:104DB000DDE9024500F08AFC38BF85F00045009926
:104DC0008DF88420091F002F00910DF1850034DD3E
:104DD0000646204629460022002300F077FD2BD20C
:104DE0001C2200F08DFD04460D46FDF79BFAFF1FC7
:104DF000002F804609DDFDF7B5FA02460B46204636
:104E00002946FDF77FFB04460D46F01D0721B8F14A
:104E1000000F0CDD491E5EBF08F00F0200F8012DE7
:104E20004FEA2818F3D502E0002200F8012D491EB0
:104E3000FAD5C61D002FCCDC30460DF18501401A95
:104E400001990DF1850605468842C8BF0D46002D23
:104E50002FD4854206DA0DF18500415D0829A8BFEF
:104E60000F2000DA0020294621AA0A4400E06D1E26
:104E700012F80139491E8342F9D00F2804D10DF1EF
:104E80008500425C521C4254002904D50098001D44
:104E900021AE6D1C0090681E0BD431180A78303298
:104EA000D3B23A2BA4BF5A443A3A401E01F8012922
:104EB000F4D50E98002840F1AD80691E0E91A9E04E
:104EC0000099DFF8002747F29750414391FBF2F237
:104ED000009225F00045C2F10702002A04DD2046B9
:104EE000294600F04BFB0BE052420020DFF8D816B9
:104EF00000F044FB02460B4620462946FDF7B0F879
:104F000004460D46B8F1660F06BF009F0A37062714
:104F10000E983F18142FC8BF142730208DF8840036
:104F20000DF1850000E03046002F35DD06462046B5
:104F3000294600F083FD01460A4606F108030420D5
:104F40000A26B2FBF6F606EB860EA2EB4E023032D4
:104F500003F8012C0A22B6FBF2F202EB820EA6EB5A
:104F60004E063036401E03F8026DE9D1083F002F8F
:104F700003F10806D7DD0846FCF76AFF02460B4638
:104F800020462946FDF7BEFA0022DFF84036FCF73E
:104F900091FF04460D46CAE70DF18501401A0DF157
:104FA000850604E00099491E401E0091761C317868
:104FB0003029F7D0B8F1660F02D10099491C04E0FE
:104FC000B8F1650F0CBF012100210E9D4D19A842BB
:104FD000B8BF451E002D1DD4854204DA705D34280B
:104FE000C8BF392000DC30202946721E531800E06B
:104FF0006D1E13F80149491E8442F9D0392802D1A7
:10500000705C401C7054002904D50098401C164662
:105010006D1C0090009C00F023FD406A0778DDF8CD
:10502000388028B2002802DC01250FF23C664BF0E4
:105030002000662808BF641C16D0672846D120B21D
:1050400010F1040F48DB404546DA9DF84000641C2F
:10505000010703D428B24045D8BF804620B2B8EB40
:10506000000848BF4FF000080FFA84FBBBF1000FA7
:1050700000F3B5800898411C0891302205990A5424
:10508000B8F1000F03DC9DF84000010704D5089833
:10509000411C089105990F5418EB0B0FB8BFC8F1CC
:1050A000000424B26042A0442AB20B909045B8BFDD
:1050B0004546059B08982DB209952A463146184465
:1050C00000F078FBA8EB05000C90D2E0BBF1610F7B
:1050D00017D14FF0700B19E028B2404504DA9DF863
:1050E00040100A0758BF8046B8F1010848BF4FF08A
:1050F0000008BBF1670F14BF4FF0450B4FF0650B75
:1051000004E0BBF1410F08BF4FF0500B0898411C61
:105110000891B8F1000F059916F8012B0A5403DC29
:105120009DF8400001071AD50898411C0891B8F174
:10513000000F05990F5412DD6D1E28B28045B8BFCF
:1051400045460598089B2AB23146184400F032FBC8
:1051500008992DB269180891A8EB05000B900598E5
:105160000899084421B2002980F800B003D42B220A
:105170004270821C04E02D2242700C46821C644264
:1051800000212CAB20460AE004460A2094FBF0F0F4
:1051900000EB8005A4EB450403F8014B491C00B269
:1051A0000028F1DC012906DC4BF02000652804BF53
:1051B000302002F8010B00292CAB08D1302002F876
:1051C000010B06E0491E585C303002F8010B002943
:1051D000F8DC059908980844121A099249E028B2A7
:1051E00021B288421CDA0598089B2AB2314618443D
:1051F00000F0E0FA08992DB269180891ABEB0500B0
:10520000B8F1000F0B9003DC9DF84000020704D5B5
:10521000059847540999491C0991CDF8308028E038
:105220000598089B22B23146184400F0C3FA08984A
:105230002D1B5844B8F1000F089003DC9DF8401076
:105240000A0703D5411C089105990F5428B28045DF
:10525000B8BF45460598089B2AB206EB0B011844D7
:1052600000F0A8FA08982DB228180890A8EB0500BD
:105270000B909DF8400000F01400102840F0C28010
:10528000079A08990B988A18099982180C988A1815
:1052900082180F98824280F2B580821A0A92B1E099
:1052A0009DF84200622808D068280ED06A2814D0E1
:1052B0006C281FD0712810D01CE0D9F8001051F8CC
:1052C000040BC9F80010C0B21AE0D9F8001051F868
:1052D000040BC9F8001080B212E0D9F80020D21DEA
:1052E00022F00702C9F80020D2E900010832C9F80B
:1052F000002006E0D9F8001051F8040BC9F800109E
:105300000021CDE902019DF8400001075AD5DDE9F1
:105310000223002B08BF002A54D04BF0200078282D
:1053200050D1079812A930220A54401C431C0793FD
:1053300001F800B046E09DF84200622808D06828D5
:105340000ED06A2814D06C281FD0712810D01CE011
:10535000D9F8001051F8040BC9F8001040B21AE057
:10536000D9F8001051F8040BC9F8001000B212E08F
:10537000D9F80020D21D22F00702C9F80020D2E996
:1053800000010832C9F8002006E0D9F8001051F8F1
:10539000040BC9F80010C117CDE90201002902D59C
:1053A00007982D210AE0BDF84000810702D5079833
:1053B0002B2103E0C00705D50798202112AA11541C
:1053C000401C079012A807990144059102A859466C
:1053D00000F04EF816E001200790D9F8000050F8D0
:1053E000041BC9F800008DF848100BE025210122AC
:1053F000BBF1000F8DF84810079203D08DF849B02B
:10540000022107910F9A07980A990C9C121A089882
:10541000521A0B99121A0998521A121A9DF8400042
:10542000141B41073FF5AAAA2020002C8DF800008C
:105430007FF7A4AA309E2546FFF794BA4FF0FF30BD
:1054400031B0BDE8F08F0000CBCCCC0C686A6C7436
:105450007A4C00007072696E74665F733A20626104
:105460006420257320617267756D656E740000009D
:105470002DE9FC4304466F29256908BF082605D09D
:1054800041F02000782814BF0A261026D4E9002312
:105490003C2790469946642918BF692905D1002BFD
:1054A00003D5D8F1000869EB4909B9F1000F08BF2D
:1054B000B8F1000F0CD1206B50B9082E3AD194F8F6
:1054C0003800010736D530203B2785F83B0031E016
:1054D0008DF80010404649463246F317FEF754FF58
:1054E0003032D0B27F1E3A2801970EDAEA55404694
:1054F00049463246F317FEF747FF80465FEA010947
:1055000008BFB8F1000F05D108E09DF8000012189F
:10551000513AEBE7E068E9198842DBD3082E09D15C
:1055200094F83800010705D5E85D302802D07F1EC9
:105530003020E855C7F13C02A261E919E160206B17
:10554000824208DA821A22624FF6EF70218F014000
:105550002187BDE8F38300280ED594F8380000F0C9
:105560001400102808D1636B6169206A5B1A1B1A4A
:105570009A1A002AC8BF2262BDE8F3832DE9D043FE
:1055800006460F4614464FF00008DFF8449012E03C
:10559000E00707D542464B4630463946FCF78AFCC1
:1055A00006460F464046494642464B46FCF782FCBB
:1055B000641080468946002CEAD130463946BDE861
:1055C000D0830000A08601000000F03F84D79741FF
:1055D0000000244010B503460C461146A0689847C9
:1055E000A06020B1E06A401CE062002010BD4FF0D6
:1055F000FF3010BDF8B505460E4617461C46002084
:105600005CB117F8011BB068A847B06030B1F06A10
:10561000401CF0620020641EF3D1F2BD4FF0FF3059
:10562000F2BD00007072696E74665F733A20256E79
:1056300020646973616C6C6F776564007072696E69
:1056400074663A2062616420256E20617267756D10
:10565000656E7400000000006E616E004E414E00E9
:10566000696E6600494E46003000000030B5144CAB
:10567000606800F00C00042802D0082802D01DE069
:10568000104830BD226820680023410202F03F022A
:1056900004D525680B49C5F3881003E020680A4942
:1056A000C0F38810A1FB0001FEF76EFE2168C1F374
:1056B0000141491C4900B0FBF1F030BD024830BD4A
:1056C0000438024040787D010024F40041EA030CD4
:1056D00050EA4C0C52EA0C0C4FF4001C09D307D0D2
:1056E0001CEB410F9CBF1CEB430F8B4208BF824257
:1056F00070471CEB430FFBD8994208BF904270479C
:1057000070470000C9B202788A421AB11CBF10F873
:10571000012FF9E718BF00207047000080B500B9DD
:1057200006A005490B681BB122220021984701E021
:1057300000F09AF9222002BD14260020636F6E73D8
:10574000747261696E742068616E646C65723A206F
:10575000626164206D65737361676500C9B2830718
:1057600006D0521E22D310F8013B9942F7D11FE018
:10577000083A13D302F1040241EA012141EA01414E
:1057800050F8043B121F21BF4B40A3F1013C2CEA0F
:10579000030C1CF0803FF3D0C9B2001F083210F890
:1057A000013B521E28BF91EA030FF8D818BF012011
:1057B000401E704762B38B0708D0521E11F8013BA0
:1057C00000F8013B00F024808B07F6D1830740F0FE
:1057D000208000BF103A07D330B4B1E83810103A37
:1057E000A0E83810F9D230BC530724BFB1E8081044
:1057F000A0E8081044BF51F8043B40F8043BD2072E
:1058000024BF31F8022B20F8022B44BF0B78037021
:105810007047121F17D35B0009D151F8043B20F8E1
:10582000023B1B0C121F20F8023BF6D20BE051F892
:10583000043B00F8013B1B0A20F8023B1B0C121F23
:1058400000F8013BF3D238BF121D521E24BF11F8DD
:10585000013B00F8013BF8D87047000010B5144632
:1058600000F002F8226010BDC1F30A5343B14A00B0
:1058700012F5001F28D2A3F2FE32A1EB02517047AD
:1058800050EA410C20D001F0004C31EA0C01B1FA91
:1058900081F204BFB0FA80F3D2180B3AB2F12003C0
:1058A0002CBF00FA03F1914041EA0C013EBFC2F166
:1058B000200C20FA0CF319439040524240F2FD3381
:1058C000D21A01EB035170470022704741EA030CE2
:1058D00050EA4C0C52EA0C0C4FF4001C09D307D0D0
:1058E0001CEB410F9CBF1CEB430F994208BF904239
:1058F00070471CEB410FFBD88B4208BF82427047B8
:10590000124254D440F2FF7C1CEA11530FD063457D
:1059100031D09B1863453CBF01EB0251704701F049
:10592000004141EA0C510020AFF30080704750EA7B
:10593000410320D001F0004C91EA0C011CD0B1FAD7
:1059400081F30B3B9A420DD9D21A994051EA0C01CE
:10595000C3F1200C20FA0CFC61449840531C40F227
:10596000FF7CD7E7914041EA0C01C2F1200C20FAFC
:105970000CF3194390407047B0FA80F31533202B95
:10598000E0D3202AEED3203A203B9A4209D9D21AFA
:1059900000FA03F141EA0C010020531C40F2FF7CA5
:1059A000B8E700FA02F141EA0C01002070475242C8
:1059B00040F2FF7C1CEA11530DD06345DBD0B2EB03
:1059C000030C3CBFA1EB025170470CF1010221EA2C
:1059D000035141F4801150EA410CCCD001F0004C4D
:1059E000352A27DC30B481EA0C01B2F1200309DA50
:1059F000C2F12003044601FA03F5D0402843D14008
:105A00009C400CE0C3F12002450020FA03F418BFCB
:105A100044F0010421FA03F091400C43002174F199
:105A2000004550F1000051EB0C01244230BC7FF4E2
:105A30007BAF70476146002076E70000400D40F2E2
:105A40001E4C40EAC120BCEB115C40F0004003D486
:105A50008CF30701C84070476FEAE170704700009F
:105A60000048704780000020012000F001B80000CD
:105A700080B500F007F8024A11001820ABBEFBE722
:105A80002600020010B500F03BF8020000230024BD
:105A9000E4431068A04203D011000220ABBE1360A3
:105AA0005068A04203D0111D0220ABBE536010BD50
:105AB000F0B583B0040000F023F8A10047183D685A
:105AC0000026F643B54216D1AFF300803D68B542DB
:105AD0000FD100BF09A00090002C01D1002000E0F0
